:020000022000DC
:10700000406000200D54030033430400F953030093
:10701000F9530300F9530300F95303000000000083
:10702000000000000000000000000000E954030020
:10703000F953030000000000DD560300F95303007C
:1070400055570300F77804005557030055570300C0
:107050005557030055570300555703005557030074
:107060000D79040055570300555703002379040098
:107070005557030055570300555703005557030054
:107080005557030055570300555703005557030044
:107090005557030055570300555703005557030034
:1070A0005557030055570300555703005557030024
:1070B0005557030055570300555703005557030014
:1070C0005557030055570300555703005557030004
:1070D00055570300555703005557030055570300F4
:1070E00055570300555703005557030055570300E4
:1070F00055570300555703005557030055570300D4
:10710000064B074A5B7802604FF426728280C37197
:107110000822002382710372704700BFC00A00205A
:107120002D2E0300064B074A5B7A02604FF49C72D7
:107130008280C3710822FF2382710372704700BFEF
:10714000C00A00205B290300F8B5C41D002824F004
:107150000704054614BF2046002000F053FA071E1E
:1071600002DA6FF00B00F8BD254EB1887088F37914
:10717000B2790331033089B280B209F036FD0028BC
:10718000EFDB737831783C4403341944002D24F04C
:10719000030400FB01F114BF2046002000F0B8FBFF
:1071A00023180DB9002BDCDB717A184679B1033353
:1071B000002D23F0030414BF20460020728900F044
:1071C00019FC0028CDDB20440DB90028C9DB317A39
:1071D00091B1737A83B1C41D002D24F0070414BF4C
:1071E0002046002002F076FE0028BADB0DB1002018
:1071F000B9E72018B7D5B4E7002DF8D1B3E700BF41
:10720000C00A00201FB572B6194BDD68EDB9BFF397
:107210004F8F1849184BCA6802F4E0621343CB60E1
:10722000BFF34F8F00BFFDE72346B2FBF6F25C1CB5
:10723000002AF9D104AEDCB256FA83F303F80C2C21
:107240000A2234B901A8A847E1E7024600230A262A
:10725000EDE7631E04AEDCB256FA83F3B0FBF2F640
:1072600002FB1600303003F80C0C3046E9E700BF93
:10727000C00A002000ED00E00400FA0507B50A4B43
:10728000DA88ADF8002068469A885B88ADF804205B
:10729000ADF8023001F072FC18B1FA219C20FFF722
:1072A000B1FF03B05DF804FBC00A002010B504462E
:1072B00028B308F07DFD10B94FF0FF3010BD06F087
:1072C0001BFDB0F5FA7FF7D80E4B00221A744FF46D
:1072D00080721A801B225A809A8040F20322DA8040
:1072E0004FF484721A811F22DC605A81EFF31084FC
:1072F00072B600F0DDFB04B962B60020DEE76FF085
:107300001500DBE7C00A002010B5002840D1234C4F
:10731000237C032B39D059B1002A3CD002390529EE
:1073200036D8DFE801F0031227352A2D1378637071
:107330000020FFF709FF0028B7BF012302232374B1
:107340006FF00B00A8BF237410BD13791BB35379E2
:107350000BB31188FB291ED853881B3B9BB2E02B33
:1073600019D81A2917D91368C4F802300C4B92881F
:107370009A80DDE713786372DAE713886381D7E7D1
:107380001388FF2B07D82372D2E74FF0FF30DBE7DB
:107390006FF02C00D8E76FF01500D5E7C00A002089
:1073A000C20A0020F8B50D46064620B319B311F005
:1073B000070420D1114F3B7C012B02D16FF00B0051
:1073C000F8BD032B02D14FF0FF30F9E700F0ACFB22
:1073D0000028F8D02846FFF7B7FE0028EEDB0BF0B8
:1073E0007CFD3046214601F03DFCFFF747FF0323BB
:1073F0003B742046E4E76FF01500E1E7C00A002087
:1074000010B5064C237C032B03D101F041FC02F0A4
:107410002DF809F0F4FC0020207410BDC00A0020F3
:1074200008B501F0EBFBBDE808400249012000F07F
:10743000E1B800BF2571020008B501F0F3FBBDE81B
:1074400008400249002000F0D5B800BF01710200D9
:10745000074B4FF0FF3141F6FF72C3E900120549B7
:107460000022C1E900221F21C3E90212704700BFB8
:1074700000000020D40A00203F280CD801380B4B14
:10748000C0F3421200F01F0053F8223023FA00F03C
:1074900000F001007047FF2806D04038C0F34212C8
:1074A000034B00F01F00EFE70120704700000020B1
:1074B000D40A00200146074B006849681A4603C2F7
:1074C00040F48C221A6041F0107242F4FF625A605C
:1074D00000207047000000200246034B00685168FE
:1074E00003C30020704700BFD40A00200246034BAC
:1074F0000068516803C30020704700BF08000020E7
:107500000138064BC0F3421203EB820300F01F0068
:107510009B6823FA00F000F0010070470000002093
:10752000F0B50C88C37C0288A5B2C4F30E0404F144
:1075300018060233865B1A44334497B213FA82F377
:10754000013B4288B3FBF7F313FB07439BB29A421C
:10755000044A93BF22EA05032A4013439BB20B80DF
:10756000F0BD00BF0080FFFF4A1E062A08B5034693
:10757000084604D84FF4D1711520FFF743FE094A9D
:10758000914202D940F2A311F6E711B903B1196093
:1075900008BD2BB11B680022C3E901211A1D1A6026
:1075A0000430F5E7FAFFFF7F10B5114B00EB410403
:1075B0001A786389B3FBF2F303FB0223013A1A44FE
:1075C000B2F5706F0279807828BF00231A440B1837
:1075D000B2FBF0F100FB11215B1AB3FBF0F100FBF1
:1075E000113313446FEA43436FEA5343638110BD81
:1075F000DC0A0020024B03EB80035960704700BF98
:10760000DC0A00202DE9F04F10F0070A85B005468E
:1076100004D040F26F111720FFF7F4FD534F07F12C
:107620000C06B1460446B04657F8043B8DF80BA053
:107630003BB101A898479DF80A30082B01D9F521E4
:10764000E9E79DF80B1041BB05B131604F4506F1EC
:107650000406E9D1002D70D0DFF81491002289F8DA
:1076600000209646022758F827A0013FBAF1000FE4
:1076700056D09AF804609AF802C0FF2E61D03946BD
:107680000023481C39D19C44BCF1FF0F40D90AB1FA
:1076900089F800E04FF49A71BDE79DF80AC0604692
:1076A000022838BF02204B1D5A0004EB4303441E3E
:1076B0002344BDF808406444013CCCF1000C04EACA
:1076C0000C044042B4F5803F03EA000302D340F2C9
:1076D0000511A0E775B19A1A0120326091701480EB
:1076E000D0709DF80C001071019810814FEA104C79
:1076F000A2F806C004FB0134A8E758F8210028B11D
:1077000090F804B0B34504BF80781B180139B8E77E
:10771000DBB2E6458AF804303CBF5FFA8CFE0122FA
:107720007B1CA0D10AB189F800E0022640F6FF6A6E
:1077300058F82670B7B9013EFAD2601B05B0BDE813
:10774000F08F0023E5E707EB41033846A3F80AA0D2
:10775000FFF72AFF09F10109BB785FFA89F18B4233
:10776000F1D8E8E74FF00009F6E700BFE00A002093
:10777000DC0A002038B54FF6FF730380184B03EB8B
:10778000810302461869A8B184780379B3FBF4F148
:1077900004FB1133DBB2194600EB4105B5F90A5081
:1077A000002D0EDB0131B1FBF4F504FB1511C9B25C
:1077B0008B42F1D1002038BD6381BDE8384009F02B
:1077C000F0B900EB41046389C3F30E031380C27860
:1077D000002AF1D14FF4E5711720FFF713FD00BF28
:1077E000DC0A00201C4B03EB810370B51C690546C5
:1077F00044B3030404D54FF4EC711720FFF702FDE6
:107800000146204609F0AFF9FF28014604D0204682
:10781000BDE8704009F0C5B9A078B5FBF0F300FBF6
:107820001353DBB219460A1D04EB4206B6F9026097
:10783000002E09DB0131B1FBF0F200FB1211C9B2DD
:107840008B42F0D1002070BD8B4201D00023E37049
:1078500004EB42025580DAE7DC0A0020094B03EB17
:10786000810310B51C690146204609F07CF9FF2808
:10787000014604D02046BDE8104009F092B900202E
:1078800010BD00BFDC0A0020F8B5104B03EB8103EC
:1078900007461C690146204609F065F9FF280546A0
:1078A00011D0E288238953EA024606D001462046D9
:1078B00009F077F901463846B04720462946FFF7D8
:1078C00073FE0020F8BD0520FCE700BFDC0A0020A5
:1078D00038B50E4B827903EB82030446186908B968
:1078E000052038BD8278E1799142F9D24B1CE371D1
:1078F00000EB41035D89B3F90A30002BF3DBA5806F
:1079000009F04FF920600020EBE700BFDC0A0020FF
:1079100070B5044610F003000E4603D04E21182027
:10792000FFF770FCFFF720FE054624B103483146FF
:107930000460FFF719FE284670BD00BFF80A00205A
:107940002DE9F14FDFF870B09DF828A09DF82C903C
:107950001E46DBF8003007460D4690461BB96021F5
:107960001820FFF74FFC52460921404608F080FFDF
:107970004A4684B20921304608F07AFF14FA80F1B1
:10798000DBF8000009F0C3F8386018B9286001B0CE
:10799000BDE8F08F04442C60386853464146092204
:1079A00008F029FF28684B460922314601B0BDE89E
:1079B000F04F08F020BF00BFF80A002070B50E4657
:1079C000044608F068FF0546304608F064FF044BA3
:1079D0002A1821461868BDE8704009F0BDB800BFFC
:1079E000F80A0020024B186808B109F084B8704703
:1079F000F80A00201F2AF8B5044626D804200323DD
:107A0000134D12FB003254B1A30703D068210920A3
:107A1000FFF7F8FB22F0030329706C602B8122F042
:107A200003022823120403FB01F001276B68120CE8
:107A30000025EEB2B14200D8F8BD14B126181F706F
:107A40005E60104401352833F3E74FF0FF30F3E771
:107A5000FC0A002070B5154A157853680021C8B299
:107A6000854203D8BA210920FFF7CCFB1C461846F3
:107A700014F8286B01310EB92346F0E70021997004
:107A8000128999610124D96159685C70920803F1E7
:107A90001E0403F1260524F8022FAC4243F8041F0C
:107AA0001144F8D100234361037070BDFC0A00202B
:107AB000134B012200214FF0FF309A60C3F80012EF
:107AC000C3F80803C3F80015C3F804259A60C3F887
:107AD0000803C3F80015C3F804250A490A4A03F548
:107AE00080334FF40040C3F80825C1F88000BFF38D
:107AF0004F8FBFF36F8FC1F88001C3F8082570471F
:107B000000F0004000E100E00000F63F024B026898
:107B10001A600020704700BF080B0020014B1B6853
:107B2000184700BF080B0020024B1868003818BF28
:107B300001207047080B00200A468F2302F8033B00
:107B40000448C368C1F80330036953604369936014
:107B5000704700BF0C0B0020024B5A8C02435A8422
:107B60005B6A18470C0B0020014B00215B6A184729
:107B70000C0B002010B5154C05F010F905F00CFBAE
:107B8000208DFFF7F1FF237E63B12246104952F8A2
:107B90000C3BE3606368536004F11900A3689360D1
:107BA0000AF0C8F8218DE06A02F0C8F9E36AB3F878
:107BB000AA0002F045F9636B94F8301094F8310094
:107BC0009847002384F8383010BD00BF0C0B00200C
:107BD000397B0200034B93F838300BB1FFF7CABF73
:107BE000704700BF0C0B002070B5184CE66AE36CC0
:107BF000E3634FF481730546A4F8403094F85000D5
:107C0000337D96F8151100EB83002DB9FF2803D1C1
:107C100096F814318B4201D004F038FE337D73B1F5
:107C2000606D05F011F8616DE06B05F091FA15B922
:107C3000284605F05DF8022384F8383070BDE06B0B
:107C400005F002F805F0A8FAF1E700BF0C0B0020E0
:107C5000F0B590F86D40134A0B46012CD1E91E6730
:107C600092F8502087B001F1800103F190034FF0AA
:107C7000010006D0022C13D040F225410620FFF768
:107C8000C1FA00240025CDE9013205900090CDE92C
:107C9000034532463B46012005F0B8F907B0F0BD78
:107CA0000446EFE70C0B002008B5094B93F8382089
:107CB000022A04D040F257312720FFF7A3FADA7ADC
:107CC00042F00102DA72BDE80840FFF753BF00BF7F
:107CD0000C0B002070B50F4DAE6D3478C90001F06B
:107CE000080104F0F30492000C4302F00402144370
:107CF0001B0103F0100304F0EC041C4300F003002C
:107D000004433470B5F8643073700223A5F85C3016
:107D100070BD00BF0C0B0020F7B5184CA56E0646D1
:107D20000DB1636C23B940F6C4012720FFF76AFA4E
:107D3000B4F848306B702B782F4601F0030123F024
:107D400003030B4307F8033BB4F84820616C384643
:107D500008F0D4FA0DF1020201A9E06EE563676450
:107D600008F0BFFE019808F0AAFEB4F84810306091
:107D70000122E06E08F052FE03B0F0BD0C0B0020B3
:107D80002DE9F0412C4C94F83830012B06460F4673
:107D90005FFA83F804D040F60C112720FFF732FA7F
:107DA000E56A2B7933B1002129710420FFF7D4FE55
:107DB00085F805802B7A052B0AD120490220FFF790
:107DC000CBFE236E1B78991E4B424B4184F87030DA
:107DD0001EB1BDE8F041FFF7CDBE002FF9D0636FB3
:107DE000304698470028F4D094F83030002BF0D17A
:107DF000638C9A0716D594F87030002BE9D02B7D50
:107E0000E46A23B1294604F1A800FFF721FF94F8A2
:107E10001521012096210BF0D4F8BDE8F041002097
:107E2000FFF7E2BE002BD4D194F87830002BE6D1D6
:107E300094F87930E1E700BF0C0B00206C0B0020B8
:107E40002DE9F04F964EF46A91B004F1A8030A931D
:107E50000023CDE90D3396F838300790022B0991B5
:107E60005FFA83FA04D040F6AD112720FFF7CAF974
:107E7000F36B03221D785978A6F8481013447364F5
:107E8000079BA6F8402005F00308002B00F0F480C3
:107E900019B1F06E08F0A2FD0146627A338DB16629
:107EA0000132D2B282EA950743F4007317F001075A
:107EB000338546D1237A23B3032B62720AD8012B70
:107EC0001FD0D6F880000DA908F031FD90B940F21E
:107ED000D471CAE7053B012B02D940F2B371C4E764
:107EE00000F078FF10B940F2DE71BEE73946082095
:107EF000FFF732FED4E91C32013342F10002C4E93B
:107F00001C326379002121721BB161711020FFF7CF
:107F100023FE338D43F40063338500230893237DD0
:107F2000C5F3C007CBB1B6F84830B3B105F04CF992
:107F30000328FBD0022806D1FFF71CFE11B0BDE8D4
:107F4000F08F079BEAE740B9A37A03F001039F4251
:107F500003D1012386F83130EEE7A27A02F0010363
:107F60009F4240D04FF0000BB36E002B40F0968044
:107F7000B6F84830B3FA83F35B0903EA151386F8C1
:107F80007930099B002B40F08F80728C96F88630F8
:107F9000110704D596F87020002A40F08580012B47
:107FA00000F28280736F0120984700287CD096F8F9
:107FB0003050002D78D1E37C002B00F0D78094F86E
:107FC0001461012ED4E91C2304F1800104F190070F
:107FD0004FF0010000F0BF80022E00F0F18040F26F
:107FE0002541062042E7B6F84830E3B108F1FF31F9
:107FF000012918D8318D41F48051318596F88410CB
:10800000994206D296F8303043F0100386F83030AB
:10801000A8E7B16E0029A5D096F8851019B12020E7
:10802000FFF7A2FD9EE70132B8F1030FA27219D04B
:1080300008F1FF32012A0BD8002B93D0D4E91E326D
:10804000013342F10002C4E91E32DDF81CB08BE7B7
:10805000002B87D0D4E91E32013342F10002C4E97B
:108060001E327FE7338D0F49012043F48053207186
:108070003385FFF771FDEDE7237D0BB105F0E0F8E7
:1080800096F88630013386F88630338D4FF0000B3A
:1080900043F480633385CDF820B065E701236CE7B6
:1080A0000C0B0020500B002004F078FEBBF1000FF9
:1080B0004CD101230993A54D2B8D5A0606D440209F
:1080C000FFF752FD2B8D43F040032B85089B63B1D6
:1080D000B5F80720B5F805301343E28813431EBFF7
:1080E000B5F809300133A5F80930079B002B00F0E3
:1080F0002681B5F805300133A5F80530002385F851
:108100008630934801F08AFE0D9830B108F0D7FC14
:10811000002202720A9901F0B1FA0E9B33B10022DB
:108120001A720C220A990E9801F076FA099B002B1C
:108130007FF402AF2B8D1B063FF500AF8020FFF7C9
:1081400013FD2B8D43F080032B85F7E641460EA8E7
:10815000FFF7E2FDADE72E4605900020CDE9036074
:10816000FB26CDE90176009004F050FF774F94F89C
:108170001421962100200AF024FFD7F82C9097F8BC
:10818000503099F8142099F8141103EB8203FF2B57
:1081900003D199F815318B4202D0FF2004F076FB11
:1081A000FE6A00238DF83130ADF83230337A062B79
:1081B00000F2B280DFE803F0068E9191B0A3A30035
:1081C0000646C9E797F88730A6F804310DF1320169
:1081D0000FA8ADF8323000F0EFFD30B10F9820B1AC
:1081E00005233372BDF8323014E0FB6A93F8513046
:1081F000002B6AD1D7F880000DF131020DF1320168
:1082000008F070FB002860D0BDF83230002B4BD155
:1082100001223272B865A7F8643003B1C31C3B6613
:10822000B27A96F809A0367A0B92022E07D0053E54
:10823000012E74D81B78022B4FF003060CD0D7F810
:10824000800008F0AAFB00286BD1032E04D000F0B8
:10825000CDFD80F00105EDB23C4F05F0010387F83C
:10826000783099F81330002B5DD0B7F86430002BCC
:1082700059D051460B9A2B463046FFF72BFD786DAF
:1082800004F0E2FCD7E9150104F028FF012387F888
:10829000883087F83830BBF1000F3FF40CAF41460F
:1082A0000EA8FFF739FD06E79DF831201AB90280C4
:1082B0008270032395E7027802F00302012A08BFC7
:1082C0004FF0030A86F808A0A4E70023ADF8323087
:1082D000012333721F4800239CE7B6F80431D7F816
:1082E0008000ADF832300DF131020DF1320108F0AD
:1082F000F9FA00287FF476AF40F2C351B5E50DF1ED
:1083000032010FA800F058FD08B10F9810B940F2E3
:10831000D251AAE5062364E740F2DC51A5E5012627
:108320008DE7012598E70B9A2B4651463046FFF71B
:10833000D1FCB86D04F088FC04F02EFFA6E7B5F878
:1083400007300133A5F80730DBE600BF0C0B002037
:10835000380B0020860B002010B5064B93F8382010
:1083600002F0FF0422B91C7601F0E0FD204610BDAA
:108370000C24FBE70C0B0020094B0A4A10B51A60CD
:10838000FFF7EAFF20B14FF4B1712720FEF73AFF63
:1083900000F08EFC044CE06400F08EFC606510BDC3
:1083A0006C140020508502000C0B0020F8B55C4CCA
:1083B00094F83860054606F0FF0016B909B102B11D
:1083C00023B94FF420712720FEF71CFF63639DF84B
:1083D000183084F885306162626784F8300084F870
:1083E000860084F8310084F888006084208584F851
:1083F000780084F8790084F87000A0652066A4F8FD
:108400006400E0636064A4F84800E56204F080FA68
:1084100004F0C2FE95F91C0104F0C4FAD5F8D0604E
:10842000D5F8C80004F0C4FA304604F0FFFB95F814
:10843000240004F0C7FAE36A93F891320BB104F018
:1084400055FA09F0B5FF95F8152100F189010120D1
:1084500004F026FB334B186804F0EEFBD5F8BC3073
:10846000C4F88030D5F8C030E366AB7B233B072BE4
:1084700054D9EB7B233B072B50D9B5F8E630B5F840
:10848000EC0095F81411984228BF184609F0D1F96C
:1084900095F8E830834228BF034698B295F8E43057
:1084A000984200D3C3B295F8151184F8873005F1CE
:1084B000DC0009F06CFC2F7D95F81511B5F8F06023
:1084C00009F0B7F90FB9043080B2864228BF0646DA
:1084D000F3B284F8843084F850302B7D23B12946E0
:1084E00005F1A800FFF7B4FB0120FFF77DFBE36A6D
:1084F000D3F8C00104F0C4FB002323606360A360D1
:10850000EB886380B5F8AA30238095F82430237176
:10851000D5F818310BB101221A60F8BD1B23C2E750
:108520000C0B00206C140020014B93F8880070475E
:108530000C0B0020024B93F82900C0F3C0007047D9
:108540000C0B0020014B93F8860070470C0B0020A9
:10855000A97C0200417E0200817D0200D57B0200E1
:10856000F0B5070CA7F5AA42144B543A012A03EAC6
:1085700090231FD927F4004042F6AA22801A18BF80
:1085800001200022162116461F2487EA060562EA0A
:108590000505013510D0DD03ADB245EA5606E50309
:1085A000ADB2013945EA52024FEA53034FEA54048F
:1085B000EBD1F0BD0020E4E70020FAE7E0FF3F0048
:1085C00010B501210020FFF749F9044670B90121D7
:1085D000FFF708F9044620B940F225313920FEF7AB
:1085E00011FE034B93F918100AF089F9204610BDCB
:1085F000980B0020014BD888704700BF980B0020D3
:1086000008B509F0A8F800F035FD00F075FB09F099
:1086100069FB01F071FC03F013FE084B08480022CF
:108620001A60084B4FF01B11C3E901014FF4A4710C
:10863000D960DA741A801A8208BD00BF7014002055
:1086400003021B00980B0020034B41F64C525A6169
:108650001B229A74FFF7D4BF980B0020F7B5284D62
:108660006B69C0F8DC3000F1A807264BC0F8C430B5
:108670000446384609F0D6FF064600F02DFB830677
:1086800054BF1B23EB88A4F8063158BF1A461E4B73
:10869000A97C1B6848BF2A89A4F8082184F8E41043
:1086A000A4F8E66023B194F91C11B4F8AA00984725
:1086B0001649384608F03AFE0123EA886979A4F899
:1086C000DA302B89019129790091033303329BB26F
:1086D00092B204F1C00104F1BC00FFF731F9D4F803
:1086E000BC3023B940F2E2413920FEF78BFDD4F8CB
:1086F000C03013B940F2E341F6E703B0F0BD00BF6C
:10870000980B002000093D0074140020A60B0020E7
:10871000024B1B6803B118470C20704770140020EF
:10872000034BDA8802801B7983700020704700BFFA
:10873000980B002037B583781A2B054608D8042BF0
:1087400004D9144A22FA03F3DB0705D412241AE0F1
:10875000292B01D03B2BF9D12888B0F5706FF5D2C9
:1087600001A909F08AF888B9019B93F8202102F049
:10877000FF046AB9AA7883F82121FF2283F8202117
:1087800001A808F082FB204603B030BD0224FAE7BE
:108790000C24F8E72000380438B50278447802F059
:1087A000010354EA030102F0020201D1112038BD95
:1087B000BAB98578002DF9D0002B18BF002400E04D
:1087C0001D46204608F03FFB0028EFD0284608F061
:1087D0003AFB0028EAD0054B00209C73DD73188219
:1087E000E5E7002BECD000242546EAE7980B0020B3
:1087F00013B5008801A909F059F8044620B9019879
:1088000090F832311BB13A24204602B010BD90F8E6
:108810005C3003F0FF04002BF5D190F853309B0738
:1088200006D1FF2380F8323101A808F02EFBEBE7D8
:108830000249543009F07EFAE6E700BF072303003F
:10884000F7B50778EF2F05460C460FD890F90120B1
:108850004378002A0ADB8278900707D113F01000D2
:108860001DD1990603F0030202D51AB1122442E089
:10887000032AFBD01E07F9D42979EA78EE7942EA77
:108880000122697942EA0142A97941EA06212E7A58
:1088900041EA06418A42E9D81F2A0FD8E6E713F0D9
:1088A000600FE3D103F00702052A05D003F00F01A2
:1088B0000D22CA40D107D9D51A07DDD56A7A013A07
:1088C000062AD3D8AA7A032AD0D813F0040102D1F9
:1088D000023A012A03D8EA7A012AC7D811B9AA7C38
:1088E000032AC3D82A7D48B1012ABFD12A7E012A92
:1088F000BCD830B91124204603B0F0BD022AF5D10E
:10890000B4E7DB0712D46B782A7D03F01803082B39
:1089100011D1022AEED101213846FEF79FFF06460B
:1089200078B109F0A0FFB8B10C24E4E700F094F9A5
:108930000028E8D1DEE7022AEDD02B7F002BEAD019
:10894000D8E701213846FEF74DFF064640B3154BE8
:1089500093F9181009F0D3FF30460AF0C0F8294601
:108960002070E87430460AF010F8EB7E0446002BC5
:10897000C1D00028BFD1B16A0246684608F04CF960
:10898000B06A2246012108F093F9B16A68460422D0
:1089900008F042F9B06A2246214608F089F9AAE7B0
:1089A0000724A8E7980B002030B50279042A8BB081
:1089B00003464FD84088B0F5804F4BD826498D5C90
:1089C000114400244A79ADF8004042F0100242EA16
:1089D00045028D7AC97B8DF8084042EA850242EA59
:1089E000C10202F01F028DF80020BDF80020ADF892
:1089F00009201A888DF80B208DF80E00120A000A43
:108A00008DF80C208DF80D408DF80F008DF810407A
:108A10005A7B8DF811205A798DF812209A79D3F863
:108A200007008DF81320B3F80B209B7B8DF81A30CC
:108A30007F2305908DF81B3069464FF0011302A883
:108A4000CDE90734ADF818208DF82440FFF7F8FE83
:108A50000BB030BD1220FBE7AC91040073B50646A5
:108A6000FFF7AEFD04460AF045F83378012B0546C2
:108A70005FD1204609F076FF00287AD020460AF020
:108A800039F818B115B9122002B070BD204609F0AE
:108A9000EAFE08B10C20F7E7204609F021FF064660
:108AA0000028F7D1204602F0D3FB0028EBD0ED01DF
:108AB00042F2107331462046ADB25D430AF006F82B
:108AC00020460AF00FF8014658B92A46204601F020
:108AD000BBFD08B90020D7E741F698213920FEF701
:108AE00091FB31460DF10600FEF744FE064608B93B
:108AF0000D20C9E7BDF8061008F0E7FE3146204614
:108B000009F0FCFF3046FFF7A9FD2A463146204612
:108B100001F09AFD024610B141F6B421DEE7164B92
:108B2000DB69002BD6D006F5917106F1A8009847B5
:108B3000D0E7002BA7D1204609F014FFC8B120468A
:108B400009F091FE0028C5D0204609F03BFD0546FE
:108B5000204609F03AFD014600289BD1002DB9D0EE
:108B6000B5F8AA00FEF790FE0028B3D041F6D62152
:108B7000B4E7422088E700BF980B00200278034644
:108B800072B1427862B142881A2A09D982881A2AB7
:108B900006D9044A006850609B8813810020704702
:108BA00012207047980B0020024B02685A61002087
:108BB000704700BF980B00200378A3F10A02112A26
:108BC0009DBF024A0020937412207047980B00202A
:108BD00008B5094B01221A7002F02AFB0AF03FF98E
:108BE00008F0B7FDFFF7C8FB002007F0E2FFBDE883
:108BF000084000F04BBC00BFB80B002010B5064C7D
:108C00000649201D08F041FB04F108000449BDE8B5
:108C1000104008F03ABB00BFB80B0020480000200D
:108C20005000002010B5084C0849201D08F02DFB0D
:108C300004F10800064908F028FB04F10C0005497E
:108C4000BDE8104008F021BBB80B00205800002000
:108C50006000002068000020014B1878704700BFBA
:108C6000B80B002010B5064C00F0ECFB606808F073
:108C700004FBFFF7E9FC00F06BFD0123237410BD3A
:108C8000B80B0020014B187C704700BFB80B0020C8
:108C900010B5064CA06808F0F0FAE06808F0EDFAAC
:108CA000FFF7AEFC0023237410BD00BFB80B0020FB
:108CB00000487047C90B002000487047CB0C0020CB
:108CC000C208044900F0070001238340885C034385
:108CD0008B54704710000020014BD3E9000170470E
:108CE00010000020034B1868C0F30020400040F043
:108CF000010070471000002008B504F0FDFF084A8D
:108D0000002332F82310814205D302EB83029378CB
:108D1000044A137008BD01330C2BF2D10023F7E78E
:108D2000C0910400CD0D002008B50068B0F8AA304D
:108D3000A0F8653190F8143180F86411012B06D049
:108D4000022B04D04FF43F710620FEF75BFA80F847
:108D5000673190F81531012B01D0022BF2D180F848
:108D60006831BDE80840024900F25B1008F0E2BF3C
:108D700017130300024B002283F822209A847047C5
:108D8000CE0D0020044B93F82220012A1ABF036065
:108D900001200020704700BFCE0D0020054B93F846
:108DA0002210012902461DBF012083F822009A8467
:108DB00000207047CE0D0020054B024693F822009C
:108DC00020B1136009B19B8C0B800120704700BF5C
:108DD000CE0D0020044B93F8220000229A8410B19B
:108DE00083F8222001207047CE0D0020034B93F81A
:108DF0002200B0FA80F04009704700BFCE0D00207D
:108E000050B90A4A1346012003F8010B0868C2F85A
:108E100001008A889A807047012805D1034B0A68AF
:108E20009A608A88D8719A81704700BFF40D00203B
:108E300050B90B4B187888B1D3F80120B3F805303E
:108E40000A608B8001207047012806D1044BD87935
:108E500020B19A680A609B89F3E70020704700BF41
:108E6000F40D002010B9044B18787047012806BF94
:108E7000014BD87900207047F40D0020F7B500238E
:108E80008A888DF80600ADF8042008680B4A8DF832
:108E90000730019D1478014602F5A872D8B28442C9
:108EA00001D8082008E052F8087F5668AE4208BF93
:108EB0008F4203F10103F1D103B0F0BD080E002091
:108EC00030B5094B01465C78002203F20113D0B2A1
:108ED000844201D8082005E013F8015F8D4202F1B9
:108EE0000102F4D130BD00BF080E0020F0B5254DC1
:108EF00095F8984189B0224605F29911684607F025
:108F0000FDF92146684608F045FC0446B8B300EB7D
:108F10004001C9B202A8FEF701FE631E95F8A161E7
:108F2000DBB2012495F8981105E0721CB2FBF1F058
:108F300001FB1022D6B206F120020DEB020010F860
:108F4000202C002AF1D103EB43012031694406EBC8
:108F500046022A4411F8187C82F8A27111F8177C95
:108F600011F8161C82F8A37182F8A41100F8204CA5
:108F7000013BAA19DBB2FF2B82F89941D2D109B08B
:108F8000F0BD00BF080E002070B5064688B00C4644
:108F9000002A4ED0294A92F8A131D01890F89911A0
:108FA00019B9FF212820FEF72DF903EB43011144E5
:108FB000013391F8A251E57091F8A35191F8A411F1
:108FC00061710021257180F8991192F89811B3FB15
:108FD000F1F001FB103382F8A13192F8C23123B9CC
:108FE000174902F5DD7008F0A2FE657905F03F052E
:108FF00045F0400565710D220021684607F03EF9F5
:10900000E3788DF80F3023798DF80E3004AA04230D
:10901000694630468DF80D5006F08EFF9DF81F30E2
:1090200023709DF81E3063709DF81D30A37008B04A
:1090300070BD03216018FEF771FDD6E7080E002011
:10904000ED8E0200044B5A78824286BF1B1893F8BB
:109050004A010020704700BF080E0020044B5A78D8
:10906000824286BF1B1893F842010020704700BF60
:10907000080E0020064B00224FF461711A8083F81D
:10908000C32183F8C421A3F8C61183F8C221704715
:10909000080E0020014BB3F8C6017047080E0020EF
:1090A00030B50A4B5C7884420ED9184490F802011E
:1090B0002B3003EBC004A5790D7053F8300010601D
:1090C000A3889380012030BD0020FCE7080E00201B
:1090D0000246074810B590F8C34124B1417821B148
:1090E000023003F0CFF8204610BD0C46FBE700BF6E
:1090F000080E00202DE9F74F2F4C9A4663788342E3
:109100008046894656D9231893F8425185F00105C7
:10911000F9B193F84A31E3B945F002070135BAF1E4
:10912000000F18D1FA070AD5062101FB084104EB0C
:109130000810524601F585718230FFF725FFBB0705
:1091400034D504EB0810524649460230FFF71CFFA5
:109150002CE02F46E3E794F8A1614FF0010B002DBE
:10916000E0D0A319019393F8991199B90092DAB15B
:1091700000F0BEFA06EB46012144019B81F8A201F2
:109180004FEA102C009A81F8A3C1000C81F8A401C9
:1091900083F899B194F898310136B6FBF3F103FBEB
:1091A0001166F6B2013DDAE747F00407384603B02E
:1091B000BDE8F08F0027F9E7080E0020074B5A782A
:1091C000824209D91A1892F842212AB9062202FBD2
:1091D000003000F58570704700207047080E0020B1
:1091E000064B5A78824281BF1B1893F83A01B0FAB5
:1091F00080F0400998BF0020704700BF080E002093
:10920000034B80F874101B680BB1408818477047F7
:10921000781400200B2808B504D940F22911292020
:10922000FDF7F0FF014B33F8100008BDF09104008A
:10923000036830B50024D3F8C400A3F84040B3F865
:10924000444042F210754443B4FBF1F4A3F84440A7
:109250004C1E05FB0242B2FBF1F2A3F84220094A80
:10926000B2FBF1F20132A3F848209A8F05FB0244C9
:109270005A6BB4FBF1F450439C63B0FBF1F05863BC
:1092800030BD00BF005A620213B540F6B833838781
:10929000B0F8CE20D0F8C4100190044601A8FFF722
:1092A000C7FF0C4B1B68062B01D001330FD10A4BB3
:1092B0001B68063B08330AD9D4F8C800FFF750F9F9
:1092C00080F00100C0B284F8910202B010BD00200D
:1092D000F9E700BFF0130020F4130020034608460E
:1092E00071B13F2B0BD8074AD35C03F07F02914248
:1092F00005D08CBF0120002000EAD3107047012068
:10930000704700BF08920400FF230B7002234B70CC
:1093100083238B70014B1B78CB707047D40F0020D8
:109320002DE9F84FD0F80480D8F8186030460C4684
:1093300007F0B3FB054620B94FF4AA711020FDF7E2
:1093400061FF0146304607F0B6FBB5F800B01FFAE2
:109350008BF7824617B94FF4AC71EFE7224B1B68CD
:1093600000F10309D3B998F8023098F8032023706C
:109370006378A4F802B002F00F0223F00F03134346
:1093800023F0C00363709AF8003003F00303012B4D
:109390000FD0022B0DD04FF4BB71CFE7B8F802000D
:1093A0003A464946984705460028DCD12846BDE89C
:1093B000F88F627863F305126270304607F081FB24
:1093C000054610B94FF4C071B8E7FB2F02D940F23F
:1093D0008F11B3E73A464946201D06F08FFF30460D
:1093E00007F0CAFAE2E700BF7C14002038B5134C3E
:1093F00010220021201D06F041FF012525741022B6
:1094000004F10803002104F11400C4E9013306F05B
:1094100035FF84F8205004F11803C4E90533084AE5
:1094200000236362A36284F82C30C4F82D30C4F8A2
:10943000313084F835301360A36338BDD40F002079
:109440007C14002010B5084C2378FF2B04D040F288
:1094500099111020FDF7D6FE06F0B4FD2070BDE88E
:109460001040FFF7C3BF00BF1D00002010B5034C24
:10947000207806F0C1FDFF23237010BD1D000020E1
:10948000014B187806F0C8BD1D000020014B024AB0
:109490001A60704780140020219302002DE9F341E7
:1094A000DFF86881054608F11407D8F80830D8F8C5
:1094B0001840227A012A22D1D8F8382052B1137AE2
:1094C0001BB9BF211020FDF79DFED8F83840C4B964
:1094D000002083E01A7A012AFAD04D4A1C46EFF3A5
:1094E000108172B650680068506001B962B6A3423C
:1094F00008BFC8F83840237A1BB9EE21E2E73A46A4
:10950000EDE7267AF6B205232372731E0B2B6ED875
:10951000DFE803F06A062235676D3E6D6D6D6D5BA9
:10952000636813B94FF40371CCE720462946984786
:109530000420EFF3108272B6237A052BD9B24FF0D4
:10954000000359D12372D8F83810A14201D1C8F8CC
:109550003830B2BB62B634E0636813B940F215210B
:10956000B0E72946204698470346C3F30723012B5B
:10957000ADF80400C0B22FD0022BDAD11AE0636834
:1095800013B940F21D219DE7204698470020D0E7FF
:1095900063680BB9FE2195E786222A70012259885B
:1095A000AA706A7100225869A5F80310AA7107F021
:1095B000E3F90420D8F83830A34202D10023C8F8D8
:1095C000383000283FF471AF08E0124B29461B6881
:1095D00020469847034668B9267298B102B0BDE8A4
:1095E000F0814FF415716DE740F257216AE740F2C0
:1095F0005A2167E70220DDE711B940F27B2161E7DC
:109600001846A6E7002B7FF450AF61E7D40F002087
:10961000D80F00208014002010B51346027A22B122
:1096200040F202311020FDF7EDFD0A46BDE8104082
:109630000146014808F058BBD80F0020044890F8B4
:109640002C301BB90349243008F06BBB704700BFB6
:10965000D40F0020D91C03000346064890F83C2094
:109660003AB190F8352022B900F82D3B024908F0B4
:1096700058BB7047D40F00200993020010B50A466A
:10968000037A23B140F20A311020FDF7BBFD0146F9
:10969000BDE810400148072308F026BBE80F002072
:1096A0001346027A0AB1037270470A46014601481E
:1096B00008F01ABBD80F00201B234FF01B12838425
:1096C000038482618382C260038539B94FF4A47335
:1096D000034AC3844384C261C3820261704700BFEE
:1096E00048014801014908F025BB00BF3B1D0300AC
:1096F000094AD2E90003434083EAB01181EA4321D9
:109700004FEAF3435360054B116058434FEAF06052
:1097100000EB8000704700BF14100020BB79379E1B
:10972000094AD2E90003434083EAB01181EA4321A8
:109730004FEAF3435360054B116058434FEAF06022
:1097400000EB8000704700BF20000020BB79379EEF
:1097500010B50A4C09480821FEF7E0F9D4E90032B7
:109760001343F7D0064CFFF7DBFF2060FFF7D8FF6D
:10977000236860601843F6D010BD00BF20000020B1
:1097800014100020174B184A9A60184A5A60184A59
:109790001A60184A9A62184ADA62184ADA60184A55
:1097A0009A61184A1A63184A1A62184ADA64184AFF
:1097B0009A64184A5A62184B184A9A60184A5A62B0
:1097C000184ADA62184A1A61184A5A61184A9A61A4
:1097D000184A1A63184A9A64184ADA64184A9A634B
:1097E000704700BF84140020232003004920030099
:1097F000AF2003006B210300B52103001D9B020075
:10980000C7210300919D0200199C02008B220300D6
:10981000A3220300659C0200841500203920030068
:109820005F220300E52103009521030005220300C8
:10983000A99B020029230300D1220300C3220300B5
:1098400049220300054B064A9A65064A1A66064BEA
:10985000064A9A65064ADA65704700BF84140020FC
:1098600003150300B71503008415002053140300EB
:109870003717030037B5044601A80D46FFF782FAF3
:1098800020B94FF4AA615120FDF7BCFC00210198DA
:10989000222206F0F3FC019B194601F8035F023D0A
:1098A000232D00F28980DFE805F02587128A8A25BA
:1098B000872B878A313D418787458A8A4E4E656569
:1098C00087878787878787878787876C77802168DF
:1098D000D1F8CE215A60D1F8D2219A602268D2F80C
:1098E0009420DA600D20FFF759FA002869D140F280
:1098F0005751C8E7226892F8A0201A710220F2E7B7
:10990000204600F00BFA0028EDD13DE011221A713B
:1099100059225A7100229A713922DA7110221A7270
:109920000620E0E7226892F89A20E6E7084600F071
:10993000E3F9E8E7226892F89B10197192F89A20EF
:109940005A710320CFE72268B2F800111971090A91
:109950005971B2F8A2109971090AD971B2F8FC10C4
:109960001972090A5972B2F8A0209A72120ADA72B0
:109970000920B8E7226892F82E11197192F82F2168
:10998000DEE7114B1B6813B940F249517BE72320F6
:10999000224698470420A6E70B4B1B68002BF3D008
:1099A00022462420984705209DE7074B1B68002B83
:1099B000EAD022462520F5E740F2445163E7012032
:1099C00091E703B030BD00BF841600203F289ABF46
:1099D000024B53F820000020704700BF8414002081
:1099E0003F289ABF024B53F820000020704700BF69
:1099F00084150020F7B50568D5F8BC6004464FF61D
:109A0000FF770DF102010DF101023046ADF8027051
:109A100006F068FF01A9304606F089FF48B10198B9
:109A200007F04DF82168A83100220272FFF726FEE8
:109A3000E7E7044905F1280003B0BDE8F04008F06D
:109A400073B900BFB71F0300F0B5044685B00D46DB
:109A5000FF2600F8A56C10F8A63CF3B1174F3B7831
:109A60001BB162211F20FDF7CDFB0C21381DFEF735
:109A700055F83E70002304F8A53C2A468A2302F8D4
:109A8000033BD4F80930C5F80330D4F80D305360E7
:109A9000D4F81130936005B0F0BD01A80C21FEF799
:109AA0003DF8A4F5F473039A1A6001AB03CB44F8B4
:109AB000AE0C44F8AA1C04F8A66CDBE71C100020CE
:109AC00010B5054C23782BB90C21201DFEF726F884
:109AD000FF23237010BD00BF1C100020024690F829
:109AE000D631BBB990F8D73103F0FF010BB100209C
:109AF0007047094B18780028F9D01970D968C2F856
:109B00009410043303CBC2F8CE01C2F8D211FF2364
:109B100082F8D631012070471C10002038B5026849
:109B2000D37B04460D463BB1122B05D0103B0F2BC7
:109B30008CBF0120082038BD92F8523013B920465E
:109B400008F0FFF92268D5F80B30C2F8C631D5F815
:109B50000F30C2F8CA312368D5F81320C3F890201B
:109B6000B3F8AA20A3F88522D5F80120C3F88722EC
:109B7000D5F80520C3F88B222368B5F80920A3F88F
:109B80008F222368002583F89E5183F8D6512068E0
:109B9000044900F51F7008F0C4F823681522DA7331
:109BA0002846C8E7499A020010B50368DA7B1F2AE5
:109BB000044604D040F29D211F20FDF723FB93F8BB
:109BC0005220B3F8AA00002183F8511082B1C3F8E3
:109BD000A91183F85210A3F8AD110D49A3F8AA01F9
:109BE00003F5D07008F09DF823680022DA7310BDE9
:109BF0000121A3F8990183F89B1183F89821054965
:109C000083F89F21A3F89C2103F28F10EAE700BF9D
:109C1000532103003B21030038B505682B6813F07E
:109C2000010419D1D1F801200C4BD1F805101340D3
:109C30000B4AC5F86230C3F3076343F008030A40D8
:109C400085F86530C5F8662008F07BF92B6843F08D
:109C500001032B60204638BD0120FCE72FC904F723
:109C60006FDB008010B50068837B042B2CD1D1F80A
:109C70000130D1F80540C0F86230C3F3076343F008
:109C8000080380F8653000234A1CC0F8664080F85D
:109C90004A30837390F8713103F0FF040BB1002058
:109CA00010BDB0F8AA30A0F8733180F87241D1F835
:109CB0000130C0F875315368C0F87931034900F2BA
:109CC000691008F02EF8EAE70120E9E71F220300F7
:109CD000006890F871315BB9B0F8AA30A0F8733120
:109CE0001A2380F87231034900F2691008F019B89C
:109CF000704700BF1F22030010B50446FEF7ECFFBB
:109D0000044A054B02400B40C4F80120C4F805305A
:109D1000092010BD2FC904F76FDB008037B50C4652
:109D20000568FEF7D9FF0A4A0A4B0A4095F8621007
:109D30000192034000930B408DF800306B4603CB3B
:109D4000C4F801000920C4F8051003B030BD00BFFD
:109D50006FDB00802FC904F738B5DB04154604D546
:109D6000037D13B10023436338BD446B0134446366
:109D700008F0B9FA836B9C42F6D30023436303498E
:109D80002846BDE8384007F0D5BF00BF7F2203005A
:109D900038B50468A37B012B054602D023689807D9
:109DA00038D494F853309A0713D44A7884F85D2055
:109DB0004A88A4F85E208A88A4F86020D80743F077
:109DC000020284F853200FD5134904F1540007F020
:109DD000B1FF94F85330D90711D423689A0708D5F6
:109DE00058214020FDF70EFA94F83231002BEBD1C8
:109DF000EFE743F002032360284608F0A2F8A37BB4
:109E0000012B4FF0000301D0002038BDA37384F86C
:109E10004A30F9E70120F8E70723030070B5056829
:109E2000044602F0EBF9054BE8721B6801461BB1D2
:109E30002046BDE87040184770BD00BF8C1600205A
:109E4000024B1B6803B11847704700BF88160020FB
:109E5000F0B51F4D2B78002414709BB1013B6D6849
:109E6000DBB21E1B012E0FDC05EBC40655F8347067
:109E700076688E4208BF874227D0B84271EB06064B
:109E800012D214700020F0BD1E19771005EBC70E1A
:109E900055F837C0DEF804708445C6F347068F4195
:109EA0002CBF33463446DCE705EBC30455F833508A
:109EB00064688C4208BF854206D0A84271EB040456
:109EC00028BF01331370DDE71C4614700120DAE768
:109ED0003C10002010F0070208B503D06321482091
:109EE000FDF790F918B1034B197258601A70C80049
:109EF00008BD00BF3C100020014B00221A707047C3
:109F00003C100020FF230B70074A0D234B70822367
:109F10008B701368C1F803305368C1F80730936839
:109F2000C1F80B30704700BF5210002002481622C3
:109F3000002106F0A3B900BF521000200B4B5A7D40
:109F400092B14A0610D5B0F8AA201A80D0F8502253
:109F50005A60D0F854229A60C2885A80044902227A
:109F600003F10C00FFF79CBB704700BF52100020AC
:109F7000059F0200094B53F8203070B503F52343C9
:109F80000C461646A1334FF47A72B3FBF2F502F099
:109F9000C9FF34442C44204470BD00BF0C9304001E
:109FA0002DE9F04F8FB09A4690F81531079304468B
:109FB0008946069207F0ADF9834694F81F01FFF732
:109FC00029F9834408F0F4F9E37B0393069B1FFA15
:109FD0008BFB00F16007002B4BD1637B032B48D137
:109FE000039B0C2B32D1B4F86C324B452ED1D4F8F4
:109FF000F031C4F8E031D4F8C430B4F8C421C4F866
:10A00000E431B4F862321344C4F8E831204602F077
:10A01000ADF8D4F8742294F81D31C4F8C42041F688
:10A020004B518A428CBF002303F00103D4F8701215
:10A03000D4F87822C4F8D41084F81E31B4F86E1223
:10A04000A4F8D8100223C4F8CC206373E37BA17B6F
:10A05000282B01D028290CD1B4F86C32A9EB0303CA
:10A060001A0406D4A1F1280359425941204601F0AF
:10A070003FFCB4F86052B4F8068094F815310893A8
:10A08000A9EB05052DB204F50C73A9EB0808002D0A
:10A0900004930FFA88F817DAD4E99223C4E99623D7
:10A0A000012345460493D04B1B7813B103F018FEEF
:10A0B00068B90026637B032B00F2D681DFE813F03A
:10A0C0006C007201C1009801CDF810A0EBE7B4F864
:10A0D000D831012BEDD9637B022BEAD094F80262D0
:10A0E000002EE6D194F81F01FFF794F8637B00F58A
:10A0F000C86B012B1FFA8BFBD9B23FD1A27CD4F8DD
:10A10000D430032A33D1D4F8E42113445946D4F887
:10A11000E401099303F0A8FDD4F8E061099BD4F8A9
:10A12000E821C4F8E001861B59461846564303F05F
:10A130009BFDD4F8EC31C4F8EC01C31A5946D4F8AD
:10A14000C4001E4403F090FDB4F8C431D4F8E821F3
:10A1500043445B1B9B1AD4F8F021013B821A02FB9B
:10A1600003660123C4F8F00184F80232A2E7304606
:10A17000099307F06DFB099B0344C7E7D4F8C400BB
:10A18000594603F071FDB4F8C461D4F8F031464487
:10A19000761BC31A5E43E4E70121002007F058FB59
:10A1A0008046D4F8D4005946404403F05DFD59463A
:10A1B000C4F8EC01D4F8C40003F056FD0BA9C4F8B0
:10A1C000F0010CA802F0FAFD0B9B0093D4E9960174
:10A1D000DDE90C2303F01AFE049004F1A80008F056
:10A1E000FFF8D4F8D410D4F8642294F815018D182F
:10A1F00002F0A0FED4F8EC11049B203D6D1AED1B7B
:10A20000454400F52340ED1AA1304FF47A73B0FBBA
:10A21000F3F0B4F8D83030312D1A03EB410194F843
:10A2200015013A46FFF7A6FED4F86432EB1A223045
:10A23000DA2BC4F8F4015DD840F2C7413020FCF7B6
:10A24000E1FFD4F8D430D4F8E4015946184403F0BF
:10A250000BFD5946C4F8EC01D4F8C40003F004FD2A
:10A26000C4F8F00104F1A80008F0BAF8D4F8D4302A
:10A27000D4F8E4511D44B4F8C431002B40F08E8072
:10A28000BAF1000F00F08A8094F8150102F052FE36
:10A29000D4F8EC11D4F8503294F815216D1A203D01
:10A2A0001D44D4E992BC514B53F82220A5EB0B0579
:10A2B0004FF47A7302F2E732B2FBF3F21544ED1B6E
:10A2C00000F52340A130B0FBF3F02D1AD4F8E821BB
:10A2D000D4F8E03194F8150102FB0313B4F8D81058
:10A2E000303301EB43013A46FFF744FE0123C4F843
:10A2F000F4016373D4F8C430D4F8F0217E3B9B1A88
:10A30000DF1B002384F83032D4E996328742A5EB74
:10A31000060528BF07465B1942F10002C4E99032E6
:10A32000C4F8C07104F1DC0007F02FFD042384F8A9
:10A330003932D4E99023C4E99623B4F8B031A4F8B3
:10A340006092A3EB09031BB2002BD4BF00220122B1
:10A35000520084F83822039A38440C2AC4F8340294
:10A3600000F08580BAF1000F40F08480637B002B01
:10A3700000F09D80D4F8C410D4F8F03104F50C70CE
:10A38000C91A07F028FA80B2002800F09080189BC4
:10A3900003B1188001200FB0BDE8F08FD4F8EC11A4
:10A3A0006D1A93E7D4F8F011D4F8C430B4F8C4218E
:10A3B000D4F8E801D4F8E0C15B1A5D43D4F8EC317D
:10A3C0004244121A3033013A0CFB003301FB0233D2
:10A3D000B4F8D81094F815013A4601EB4301FFF7A1
:10A3E000C9FDC4F8F40185E7681000200C9304004F
:10A3F000D4F8F0E1D4F8C430B4F8C4C1A3EB0E0330
:10A400005D43049B3BB3BCF1000F24D1D4E99423FA
:10A41000D4E99201904271EB030302D340F20E5152
:10A420000CE707992B4B53F82130D4E99201CDE981
:10A4300004010498203A121A03F2E7314FF47A7BB0
:10A4400003F52343B1FBFBF10A44A133B3FBFBF358
:10A45000D21AD21B15440CEB08010EFB01F130316E
:10A4600008983A464900BAE740F22651E6E6BAF1C2
:10A47000000F1CD0B4F8D80118B3B4F8DA1194F86E
:10A48000DC21A4F8DA1101FB0222904201F101055E
:10A490000DDD002B0BDD002384F83832A4F8DA51EF
:10A4A000FFF726F900F00700013084F8DC0104F51D
:10A4B0000C7104F5027004F0C1FD20B940F2765130
:10A4C000BCE60146DBE7069B83F0010384F800321B
:10A4D000002060E70C9304002DE9F8430E46044683
:10A4E00018B9D3213020FCF78DFE052900F2A78092
:10A4F000DFE801F00376413DA52E03F0C9FDC4E974
:10A500004601204600F0C8FFD4F80C01CB3803F018
:10A5100075FC204608F0EEFA054600BB01462046D1
:10A5200008F025FA00F1E506D4F80C01B04209D292
:10A53000301A322838BF3220032103F079FD60B190
:10A5400003F060FCC4F80C61204608F0E5FA45B160
:10A550002046BDE8F84308F0E0BA0125F2E70025FF
:10A56000F2E7D4E94623C4E94023BDE8F883BDE817
:10A57000F84302F02FBC08F005FA042384F81131E7
:10A580008146884603F038FC07220F46A9FB0231BA
:10A5900002FB0811D4E940525B1941EB0205D4F8E3
:10A5A000E8203AB159EA080204D0984277EB050254
:10A5B00028BF012684F81061D4E94826121A66EBF8
:10A5C000070694F8301139B9012A76F100010BDA47
:10A5D000204600F069FF03E0012A76F10006F7DB70
:10A5E000002384F82831C0E7984277EB05010FD2A9
:10A5F00059EA08080CD01B1A65EB07019A4276EB62
:10A60000010005DB012B71F10000A4BF1A460E46C4
:10A610000C490123914284F829314FF0000384F85A
:10A620000831B341B8BF0A4604F1C00004F5847193
:10A6300004F098FD002898D140F2B26152E7EF2172
:10A6400050E700BF0040420F2DE9F84304460E4694
:10A65000154690F8283103F0FF07002B40F0948056
:10A6600000F1C00839467822404605F007FE474908
:10A670002246404604F0DCFCC4F8E860FF2384F87E
:10A68000283166B1FFF74CF800F00700013086F87A
:10A69000DC013F49324606F5027004F0C9FC40F285
:10A6A00002434FF00009A4F8103184F8089103F038
:10A6B0002DFB00F19E06204608F01CFAB6B20146BA
:10A6C000C0B306F026FE00F1280189B2284603F047
:10A6D000CBFA2844C4F80C0103F08EFB301841F18A
:10A6E0000001C4E94601012084F8EC00A4F81E90A2
:10A6F00008F0B2FAE53D2D1AC4F8F0504FF0FF35DE
:10A700006FF00041D4E94623C4E948510025C4E96B
:10A710003E23C4E9402384F8295142F2107204F523
:10A720008471404604F01EFD38BB40F2B911302060
:10A73000FCF768FD204608F01AF9DFF85890E5307C
:10A74000C4F80C01B9F8020048B1E08B38B1FEF74B
:10A75000E7FFB9F80230B0FBF3F202FB1300064446
:10A7600003F04AFB361841F10001C4E94661002DAF
:10A77000C4D0AD1941F10001C4E72946204608F0D4
:10A78000CEF93846BDE8F8830C27FAE7D9A40200D1
:10A79000FB23030068100020F0B5002385B0CDE94D
:10A7A000003301238DF806306846FDF791F870B14B
:10A7B000104E012333710023CDE9023302A8FDF7C7
:10A7C00087F8044638B10023337105B0F0BD009816
:10A7D00007F0FBFEE8E7029D6B7B002BEED005F552
:10A7E0000277384603F0BEFB384603F0CFFB6C73AC
:10A7F000E4E700BF68100020054B002201215A71D8
:10A8000019701A7142F210725A80FFF7C5BF00BF6B
:10A8100068100020014B5871704700BF681000207D
:10A8200008B502F00FF8044B9A6882422ABF1879E3
:10A83000002080F0010008BD681000202DE9F347DA
:10A840000446062900F2DB80DFE801F0048473810E
:10A85000878CD300D0E99201D4E99423904271EB24
:10A86000030354D294F80232002B50D0637B032BA5
:10A870004DD107F09DFD94F815A1814606F049FDE4
:10A88000064694F81F01FEF7C5FC064494F81F0124
:10A89000FEF7C0FCD4E99223D4F85072D4F8C0512A
:10A8A00080465046BF1A02F03DFB564A52F82A2015
:10A8B000A5F1600302F52342A1324FF47A71B2FB95
:10A8C000F1F29B1AA3EB09031B1A09F1890909EBA1
:10A8D0005309B6B2603B08F5C86873431FFA88F89D
:10A8E000B3FBF8F360335A08A9EB53039F4202D33A
:10A8F00091444F4501D903F0F9F9D4F8C400314629
:10A9000003F0B2F90023C4F8F00184F802323E4BA0
:10A910001B7903F0FF0263B90092B4F8B41101236C
:10A920002046FFF73DFB30B140F2CE613020FCF70E
:10A9300069FC0423637302F017F904F065FBE288F5
:10A94000A4F8FE210023A4F8623284F8013202B098
:10A95000BDE8F08703234373F9E708F028FBC4E957
:10A960009401F4E790F81501274F07F029FD6E30A8
:10A97000D4F8F031D4F8C45095288CBF0020C0F131
:10A980009600C218954288BFED1A7B798CBF2D1AAC
:10A99000002523B9D4F8DC309D4228BF1D4604F1C0
:10A9A000DC00D4F8C06107F0F0F90644022003F09F
:10A9B00013FBAD1B25EAE575854228BF054602213C
:10A9C000284603F035FB10B103F01CFA2E44012396
:10A9D000DC22314604F1A80007F07BFAD4F8C0313C
:10A9E000B860D4F8C400184402B0BDE8F04703F0E2
:10A9F00005BAA83002B0BDE8F04707F0F1BC40F25C
:10AA00009C7193E70C93040068100020014B588060
:10AA1000704700BF68100020074A03461068D3F84B
:10AA20004920C0F80320B3F84D20A0F8072093F880
:10AA3000481007F04DB800BF7410002070B50446F0
:10AA40000E466588807D15F00401134618BF04F199
:10AA500057013246FEF74EFB4107054621D4C20797
:10AA60000BD5012384F84830A07DFEF7A7FB0368CF
:10AA7000C4F849308388A4F84D30AB0701D40120D5
:10AA800070BD094B1868D4F85730012184F856106E
:10AA9000C0F80930B4F85B30A0F80D3007F021F8A9
:10AAA000EDE70020ECE700BF7410002038B5C38C40
:10AAB0000F4D0133C3F30E03C3842B7C04462BB12B
:10AAC00002F03CF901F010FC00232B7400232B71E1
:10AAD00094F869302BB101212046BDE8384007F0D9
:10AAE00040BE637C13B1E28C9A42F4D20021F3E7BA
:10AAF0007410002010B5074C2379012B05D1237C5D
:10AB00001BB102F01BF901F0EFFBA069BDE810409A
:10AB1000FFF7CCBF7410002070B5254C2379012BB2
:10AB200004D040F682412D20FCF76CFB98B901253A
:10AB3000237C1BB102F002F901F0D6FB002D36D0C8
:10AB4000A06907F05DFD68B301F0BEFFE369BDE8F1
:10AB500070409B6818472168A26911F8095B02F1EF
:10AB60004903E80992F8482006F0F6FD0028DED0F7
:10AB70002068002106F0DAFF0028D8D02379A069E8
:10AB8000012B02D040F65C41CDE72379E26903F165
:10AB900080435269013B05F00F0152F8233098477A
:10ABA0000546C5E7A069BDE87040FFF77FBF70BDEF
:10ABB00074100020074A0346906903B909B9FFF7EA
:10ABC00075BF1379D26903F180431269023B52F8D1
:10ABD00023301847741000202DE9F043032985B075
:10ABE0000546174607D14388980723D400242046FA
:10ABF00005B0BDE8F083428890F86830D107DBB239
:10AC0000F4D5002BF2D14FF00108DFF8D49099F879
:10AC10001060C6B106F0D5FD0828387016D002AA1B
:10AC20000DF10701FEF73CFA38B940F6F7612D2027
:10AC3000FCF7E8FA4FF00208E7E79DF8070002A9E1
:10AC400007F09EFB06463B78082B08D1D9F8001088
:10AC500011F8030BC0F3801007F092FB0646D9F8F9
:10AC6000001095F84F2011F8030B05F15003C0F3C5
:10AC7000801006F071FDD9F80010044611F8030B9E
:10AC8000C0F3801006F093FD8146FEF7A9FA40B1AB
:10AC9000B9F1080F1BD04846FEF7D4F980F0010344
:10ACA000D8B23A78082A14D01CB9AC7DA21A544202
:10ACB00054416A8853079AD4002897D176B9EC7C1E
:10ACC000444518BF002C0CBF012400248FE700204E
:10ACD000E7E780F001022240D4B2EAE7344686E793
:10ACE000741000202DE9F04F85B008230DF1070204
:10ACF000052104468DF80730FFF76EFF064620B9A0
:10AD00000026304605B0BDE8F08F794F39687A7C6F
:10AD100011F8030B07F11203C0F3801006F01CFDBD
:10AD200080460028ECD13B68A16918468D7D10F85B
:10AD3000032BC2F340122A408A75D3F80320C1F8CE
:10AD4000AD208288A1F8B1201D46A26915F81F1B0D
:10AD5000C1F3801182F8AC10D3F81F00029002A951
:10AD600028790871D3F80F00C2F8C800587D1D7DFE
:10AD7000000440EA0520DD7C2843C2F8D000B3F887
:10AD8000190082F81E8140F2E24909FB00F0C2F886
:10AD9000C4009D7DC5EB451005EB800505EB8505E1
:10ADA0006D00A2F8D850B3F8170009FB00F0C2F804
:10ADB000D400B3F81B00A2F8CC00B3F81D00A2F831
:10ADC000CE0093F8243003F01F005B0982F82200C4
:10ADD00082F81F31A56994F912A005F1160006F05A
:10ADE000D5FD40F20113A5F814314FF0FF0B85F8A3
:10ADF00016B1414605F1DC00FEF75EFC514605F157
:10AE0000A800FEF7FDF9A36984F87380B3F8AA20BF
:10AE1000A4F8742084F891B04FF6FF72A4F8922041
:10AE2000D3F8C420B2FBF9F2A4F88A20B3F8CC20FE
:10AE3000A4F88C20B3F8CE20A4F88E2093F81F211C
:10AE400084F89020627D9DF8070004F17E0162B3D2
:10AE500094F84820012A28D194F84E2002F0C0022C
:10AE6000402A22D1D4F84920C4F87E20B4F84D20DD
:10AE70008A8093F8AC2084F87720082803F1AD0588
:10AE800004F18401D3F8AD3004F1780227D0C4F87E
:10AE90008430AB888B8004F17701FEF701F940B96B
:10AEA00040F6E2312D20FCF7ADF90022C4F87E20F7
:10AEB000DEE794F8773043F0020384F8773004F14A
:10AEC0006A000C4906F02DFF0B4BA0691B6800229D
:10AED0003A71002B3FF415AF2146984711E7A3675D
:10AEE000AB8893800023C4F884308B80E7E700BFF1
:10AEF000741000208B28030094160020032937B516
:10AF0000044604D0052953D0012003B030BD0823E6
:10AF10000DF107028DF80730FFF75EFE0028F3D031
:10AF2000237C284D03B39DF8070094F8B630DBB9B5
:10AF3000237884F8B730082804F1B90229D004F145
:10AF4000B801FEF7ADF820B94FF477612D20FCF77A
:10AF500059F994F8B83043F0020384F8B8301A492C
:10AF600004F1AE0006F0DDFE2B6804221A70062202
:10AF70005A702046FFF750FD286894F83820616B1E
:10AF800006F0C5FD032328682B7101F05DFE00204B
:10AF9000BBE72868034613F8031BC1F3801184F84C
:10AFA000B810D0F80310C4F8B9109B889380D6E786
:10AFB000064B1B68002BEAD0984780F00100C0B216
:10AFC000A3E700BF74100020732803009016002030
:10AFD000F8B504460F4619B300F12005284607F0DE
:10AFE00014FEA0B963881A072ED5284607F024FE60
:10AFF0000646284607F009FE301AC0B207F02CFEBC
:10B00000474A936803442846936007F0DAFD2846D0
:10B0100007F0DCFD01F0D6FC2179252001F036FC9B
:10B020003F4E94F8562030680023037043706388C5
:10B03000103B0D2B64D8DFE803F05F635B0C6340CB
:10B0400063636363636363402046BDE8F840FFF7D2
:10B050002DBD06234370202303702046FFF7DCFC40
:10B06000638823F008039BB2152B05D094F8302099
:10B07000E16A306806F03CFD306801F0E5FD02232E
:10B0800021793371002001F0ABFC054607B9F0606F
:10B0900063881B0704D507F0DCFD0544C4F8F450B1
:10B0A0006388103B0D2B36D8DFE803F038352F2F9F
:10B0B000352F353535353535352F0C23437003465F
:10B0C000212103F8091B52B1D4F85720C0F80920F8
:10B0D000B4F85B209A80012106F003FDBDE7226DE4
:10B0E000C0F80920B4F854209A8094F84F10F3E780
:10B0F000062303704370B0E7022303700623F9E7C9
:10B1000040F259612D20FCF77DF821790120BDE83E
:10B11000F84001F039BE40F6F541F3E7F8BD00BF55
:10B120007410002038B54388102B044604D1BDE8C4
:10B1300038400121FFF74CBF0B4D2B7C23B101F0B0
:10B14000B9F8402001F0EEFD286801F07DFD60882F
:10B1500010F0040002D1217901F016FE002001F068
:10B16000C7FD01232B7138BD74100020024B012153
:10B170009869FFF72DBF00BF7410002010B5124C66
:10B18000237C1BB101F0DAFD01F0AEF8A06907F0F5
:10B1900037FA38B12379012B09D040F686312D20BA
:10B1A000FCF730F8A069BDE81040FFF77FBC2379B9
:10B1B000E269A069D26803F18043013BBDE8104019
:10B1C00052F82330184700BF7410002010B507480C
:10B1D000037903F0FF0433B914222146043005F04B
:10B1E0004DF8204610BD0C24FBE700BF7410002072
:10B1F00010B50A4C00232371FDF75AFD2060FFF7BC
:10B20000E5FF20B14FF442712D20FBF7FBFFE3690E
:10B2100013B940F20B31F7E710BD00BF74100020E6
:10B22000014B024ADA61704774100020F4B4020046
:10B23000034B044A1A60044B044A1A60704700BF6B
:10B2400090160020E5AC020094160020152703009C
:10B25000F8B5057DAF1E0446FFB2002D3AD0012F90
:10B260002DD800F1500190F84F0006F0A0FA082800
:10B27000064624D0FDF7F2FE10BB023D18BF0125A3
:10B28000012F8CBF0027012784F848506775A675E9
:10B29000FDF700FF054602F0AFFD154B0022E5FB70
:10B2A0000301C4E9100184F8562011462046FFF737
:10B2B000C5FB70B940F2A3412D20FBF7A3FF082680
:10B2C000022D09D104F149010020FDF7B1FD60B95B
:10B2D0000020F8BD0826F5E704F149010120FDF73B
:10B2E000A7FD0028F4D00125CAE70025C8E700BF64
:10B2F00040420F00F0B5444E327985B0044602F06A
:10B30000FF0312B90278FF2A04D140F6DD112D2087
:10B31000FBF778FFB36080F869303C4B00933C4BFF
:10B3200001933C4B0293F36968465B68039301F019
:10B3300083FC01F0EDFA01F001FD00F0D5FF364885
:10B3400001F036FB04F12005344801F06FFC28467B
:10B3500007F037FC284607F039FC01F033FB217970
:10B36000252001F093FA94F9120001F01BFB04F17F
:10B370002C01A06A05F0C1FC04F134010746A06A63
:10B3800005F0E2FC0546DFB1237FCBB1B4F92650CE
:10B39000ED43ED0F637D13B963885B0709D5D4E9ED
:10B3A00010126FF000439A4208BFB1F1FF3F0DD178
:10B3B0009DB930680330FDF78BFE307405B0F0BDE9
:10B3C000002DE7D0657F002DE0D1E3E702F014FD0A
:10B3D000D4E9102390429941EAD30122294620461C
:10B3E000FFF72CFB50B1FDF755FE054602F004FDBA
:10B3F0000B4BE5FB0301C4E91001DAE7002DD8D0BF
:10B4000040F61C2183E700BF741000207DB10200CC
:10B4100019AB0200B5AB0200D6BE898E555555005A
:10B4200040420F0073B50446FFF764FF0021204639
:10B43000FFF7CEFD236E0BB101221A606388DB0794
:10B4400024D50023124EA569CDE90033FF23737480
:10B450006846FCF73DFAC8B9009CA542F8D095F8BB
:10B46000B32094F8B30005F1B40304F1B40106F07D
:10B4700073F90028ECD094F8AC307374D4F8AD3084
:10B48000C6F81230034BB4F8B1209A8002B070BDF8
:10B490007410002086100020024B9861DB691B6845
:10B4A000184700BF7410002043881B0710B50446DE
:10B4B00012D583690A493C2280F87320B3F8AA3078
:10B4C000A0F87430FF2380F891304FF6FF73A0F896
:10B4D00092306A3006F025FCFF2384F8693010BDF5
:10B4E0008B280300D728030025B10200DD280300C4
:10B4F000FDAE020025B40200F5AA02006DB1020003
:10B50000E4B40200E8B40200F0B4020001380228FA
:10B5100008B503D9C4212F20FBF774FE13290A4B69
:10B5200005D811290CD8102907D0D221F3E7152905
:10B53000FBD103EB4003D88801E033F8100008BDCD
:10B5400003EB40039889FAE78C920400294A38B546
:10B55000948803461C43402B1068948004D1042136
:10B56000BDE83840FFF76AB9802B01D10521F7E724
:10B5700003F00304032C04D140F6A4313120FBF77F
:10B5800041FEDD0706D50C6891602478062C0FD0AB
:10B590000B2C17D09C0706D509680978117305296B
:10B5A00019D00B2921D09B0644BF0823537338BD03
:10B5B000C47B1B2CEED100240025C0E91C450124CE
:10B5C000C474E7E7C47B112C01BF0024C4740124B8
:10B5D00080F85240DEE7C17B1729E4D10024002522
:10B5E000C0E91E4501210175DDE7C17B1029DAD1D3
:10B5F0000021F8E7941000200C4A517B034689B9DA
:10B6000010683BB9B0F80411B0F8E820914209D8AD
:10B61000FFF706B993881B0706D5007C073818BFCB
:10B6200001207047002070470120704794100020CF
:10B630002DE9F843614D06462C6800287ED1AB8881
:10B640001A0725D594F89E30FE2B04D140F2FB5109
:10B650003120FBF7D7FDFE2384F89E30E37B1D2BC2
:10B6600005D184F85100284606F075FCE673A37BEB
:10B67000232B06D1E37B233B072B94BF2A232423D0
:10B68000A373237C072B02BF0223AB7384F89E3085
:10B69000AB88DB0717D4AB885F0776D499077DD5D5
:10B6A000287B2B6801220D2883F89F2073D0112856
:10B6B0007DD007287DD0FEF793F9034600286BD193
:10B6C00040F2EE51C4E7D5F80080A96898F80F3031
:10B6D000D1F80090103B0F2B99F8007009D8BB1ED1
:10B6E000DBB2092B67D840F2333222FA03F3D807D2
:10B6F00061D509793846FDF7F1FD20B939462F4863
:10B7000006F048FC39E0012F01D9162F21D198F815
:10B710000E0006F02FFC40B198F80E30232B04D019
:10B72000242B07D12A2388F80E303846FEF74EF92D
:10B7300003461BE0162F14BF022620266B7B1B0737
:10B7400004D5E37B103B0F2B98BF08263046BDE89D
:10B75000F883112F15D005D8072F14D00D2FE4D161
:10B76000174B05E0142FE0D1164B1B68002BC5D0FA
:10B77000AA68124812794946984700288BD0064695
:10B78000DCE7114BF4E7114BF2E7227C062A04BFF9
:10B790000122AA7382E70E4B08489847AB88DA0665
:10B7A000CCD5E37B092BC9D10A23E373C6E7094B48
:10B7B000F2E7094BF0E70826C0E700BF941000202D
:10B7C000CF2D030098160020132E030061B802004D
:10B7D000F92C0300452D03006F2D03002DE9F041E6
:10B7E000A0F10E040B1EE4B208BF1F23172C16464F
:10B7F0000AD80125A54040F251210D4207D115F488
:10B8000060051FD1082C07D00020BDE8F081BDE8FD
:10B81000F041002107F024BA1468A17B242906D145
:10B8200019463046FDF780FA84F82C5105E02A29A4
:10B83000EAD1E37B233B072BF3D80023A37384F8DF
:10B840004A30E1E7054A1468002CDDD01A4601466B
:10B8500023463046BDE8F041184700BF9C16002043
:10B8600070B54D78A5F10E03DBB2152B04460CD84C
:10B87000012101FA03F640F25122164207D1026873
:10B88000152B927B2AD0082B07D0002070BD0246D2
:10B890002846BDE8704007F0E3B9242A01D02A2ADF
:10B8A000F3D1204606F045FB2368DA7B252AECD04D
:10B8B00093F8632022F0010283F86320226892F853
:10B8C000633023F0080382F863301A212046FDF725
:10B8D0002BFA2368002283F82C21D6E72C2AD4D116
:10B8E000024B1B68002BD0D09847CEE7A016002053
:10B8F0002DE9F04190F86E7290F86F6204460D46A3
:10B900007FBB90F8141176BB94F8153184F81411AC
:10B9100084F81531FF2384F81631154B1B6804F1A8
:10B92000A8080BB14046984794F82C31012B01D060
:10B930003E4303D0237B43F001032373404606F0CC
:10B9400036FA18B1237B43F0020323730621204605
:10B95000FEF774FF002384F82C3135B1A373BDE8E2
:10B96000F0813946CFE73346D0E7E573F7E700BF0C
:10B97000A416002073B5484D002604462860AE800A
:10B980006E73AE73FF2380F84C30B0F8B231002BE9
:10B990007CD090F89E30FE2B78D190F82031002B8F
:10B9A00074D0037C063B012B70D990F82131A0F8AC
:10B9B000446080F8A0300221012207F0AAF984F83F
:10B9C000BA6102212846FDF755FFB4F8B611B4F864
:10B9D000B821B4F8DA30013989B2B1FBF3F313447A
:10B9E000A4F8B831B4F840300B44A4F840302046F5
:10B9F00007F0DCF910B1636B0B446363B4F8B23148
:10BA0000012B9CBF0133A4F8B231002609B184F8A0
:10BA1000BE61E37B84F8BA61093B012B0FD8E38850
:10BA2000B4F86C229B1A190409D404F26E2104F1B3
:10BA3000160005F0ABFFE673FF2384F84B30B4F833
:10BA4000B62104F1A801204605F0E6FFE37B134A86
:10BA50001349103B0F2B8CBF002301230093286850
:10BA6000104BFCF7A3FC2C68237BDA0703D50A48AC
:10BA70000021FDF759F9237B9B0703D504F23F1002
:10BA8000FDF730FE0023237302B070BD94F89E10C2
:10BA9000FE299AD0004896E794100020F9B50200DC
:10BAA0004DB50200A9BA02002DE9F047B24F0E468B
:10BAB000B9883C688D0556BFB4F840200023013298
:10BAC000804646BFA4F8403084F8BE31A4F8402038
:10BAD000204607F06BF938B10B4604F59B7204F170
:10BAE000A8012046FEF738F9BB8803F4C06323B1F0
:10BAF000A37C002B45D0032B49D0A27CBB88012A14
:10BB000003D1180544BF0222A274B8F1000F40F01F
:10BB10008F8059065DBFB4F8D821013292B24246F7
:10BB2000A4F8D82103F00A020A2A0CD13A7B022A8F
:10BB300009D123F008033046BB80FFF779FD0823C5
:10BB40003043C6B2BB803046FFF772FD3D6895F8C2
:10BB50009E303043FE2BC6B23BD1D6BB2B7C063B7E
:10BB6000012B36D995F82031ABB195F82131A5F8E4
:10BB7000446085F8A03001220221284607F0C9F868
:10BB800027E00121A1742046FEF758FEB5E7022305
:10BB9000A3740121F7E795F80FA0AAF10F0A5FFA45
:10BBA0008AFABAF1100F40F2E9802B68DA0702D561
:10BBB00032460921E1E7980740F18D8032460C2199
:10BBC000284607F0A6F895F8533043F0010385F8AE
:10BBD0005330B4F8B83194F8BB510133A4F8B831FC
:10BBE000002D00F0FB81FCF7A5FC10B10023A4F8A8
:10BBF000B831A17C012940F22382237C072B40F03D
:10BC00000582B4F84030022B40F21A82B4F8425058
:10BC10000135ADB2E3882B44A4F8B03194F8BC31BF
:10BC2000002B00F011820123E2881344A4F8B43100
:10BC3000BB883D685B065FBFB5F8C431B5F8B62177
:10BC40009B189BB248BF0023A5F8C43195F820315A
:10BC50001BB92B7C063B012B06D8B5F84430B5F850
:10BC6000B6211344A5F8443095F84A1031B1B5F81F
:10BC70004630B5F8B6211344A5F8463095F9502062
:10BC8000002AC1BFB5F84E30B5F8B6011B18A5F8AB
:10BC90004E3095F8313063B9B8F1000F40F05E8254
:10BCA000BB7B022B40F0168295F8A030062B18BF04
:10BCB000162395F8302022B92F4885F83130FDF74A
:10BCC00099FE284607F0D2F8002384F84C30BDE8EE
:10BCD000F047FDF77FB8590702D5324613214CE7EC
:10BCE0001A0706D595F8983085F8A0303246072116
:10BCF00043E713F0300F3AD095F82331002B5BD196
:10BD000095F82231D3B1EB7B282B05F1A80005F57E
:10BD1000917105F26E2228D0AB7BA3F1280CDCF1E7
:10BD2000000343EB0C0306F034F82B6823F02003E8
:10BD300043F010032B60002385F822312B68DA06CC
:10BD40003AD505F1A80006F032F818B105F23F1017
:10BD5000FDF7C8FCB5F8FE30A5F8A030B5F8023103
:10BD6000A5F8A2300022152107E70123DBE75B06D7
:10BD700022D50022242100E794100020D7F800905B
:10BD800099F80F30172B2DD011D8102B1DD0152B53
:10BD90001FD0AB7B002B63D1EB7B0F3B102B67D904
:10BDA00095F83E30002B63D001221221E5E61F2BCF
:10BDB000EFD1324606210AE03868C37B252B3FD0FD
:10BDC000342BE6D100221121D8E632460B21484619
:10BDD000D4E64846FDF782FE00283FF4FAAE002282
:10BDE0000421F4E799F86832012B07D13246052186
:10BDF000484606F08EFF89F86862EAE699F86832EC
:10BE0000022BD9B27FF4E5AE99F8523053B1062334
:10BE100089F8A0303246484606F07BFF002389F8B7
:10BE20006832EAE73B6840F20632A3F89A2099F8B4
:10BE3000623013F0040F32460CBF0D211121EAE7E6
:10BE400090F82C31022B02D10022172196E690F8AF
:10BE50002C31012B9DD190F82D31002BF4D098E797
:10BE6000082B05D195F8993085F8A03001223EE7DE
:10BE7000BAF1100F7FF6ADAE3D6895F80E90B9F1AE
:10BE8000000F7FF4A6AE95F833313BB101220E21AD
:10BE9000284606F03EFF85F83391AEE795F832313B
:10BEA00083B195F8539019F0030A0BD101220C21AC
:10BEB000284649F0010906F02CFF85F8539085F8D3
:10BEC00032A19AE795F822313BB395F8233123BB91
:10BED000EB7B282B05F1A80005F5917105F26E2288
:10BEE00019D0AB7BA3F1280CDCF1000343EB0C036E
:10BEF00005F04FFF002385F8223101221421284646
:10BF000006F007FFB5F8FE30A5F8A030B5F802310D
:10BF1000A5F8A2305DE60123EAE795F82C31012B64
:10BF20003FD195F82D31002B3BD1EA7BA2F12303C1
:10BF3000072B36D995F81401012806D0022804D021
:10BF40004FF43F710620FBF75DF995F815110129B3
:10BF500001D00229F4D1022895F82E310BD0012B03
:10BF600014BF0023012343B9093A042A7FF631AEF6
:10BF70000122162101E6022BF2E7022995F82F3162
:10BF80000DD0012B14BF00230123002BECD07648E9
:10BF90000021FCF7C9FE002385F82C3119E6022B9D
:10BFA000F0E795F835314BB195F82D3133B9EB7B8E
:10BFB000233B072B02D901222321DEE595F83431FA
:10BFC000012B05D1002385F8343101222521D4E548
:10BFD00095F83431022B7FF4FCADF3E7FCF7A4FABB
:10BFE00008B1A4F8B851FCF7ADFA00283FF401AE4F
:10BFF00094F8BE310133DBB2022B84F8BE3182BF2C
:10C000000023A4F8B83184F8BE31F2E594F83E304C
:10C0100013B1A37B0E2B13D1B4F84250B4F84030C7
:10C020002046ED1A033D06F0C1FE58B1A36B626BCA
:10C03000033B9B1A9D42A8BF1D46012D3FF7E9AD6A
:10C040000125E7E52B46F5E7012D7FF6ECADE37B17
:10C0500013B10A2B7FF4E7ADA37B002B7FF4E3AD94
:10C06000237C002B7FF4DFAD02297FF4DCAD94F854
:10C07000BE31002B7FF4D7ADD4F8BC00B4F8DA9011
:10C0800004F084FC00283FF4CEAD94F89E30FE2BE3
:10C090007FF4C9ADB4F8B231012B7FF6C4ADB4F86A
:10C0A000B821B4F8CC309A42BFF4BDAD9B1A9BB214
:10C0B000013DADB2B5FBF9F59D4228BF1D4619FB08
:10C0C00005F3003D03F1010318BF01259BB284F87D
:10C0D000BA51A9E5012B08D16B7C002B7FF4E9ADA7
:10C0E00000212846FEF7AAFBEEE55EB1F00633D448
:10C0F000310733D4B20633D4B30733D14FF43161AF
:10C10000312020E739B1B5F84610B5F848309942EA
:10C1100001D32223CDE5002A05DDB5F84E20B5F880
:10C1200048309A42F5D2B5F84420B5F842309A42E8
:10C1300009D2AA7CB5F8403052B1B5F842209A42F3
:10C14000CED80823B5E595F82031002BE1D1F0E7F2
:10C15000052BC5D93E23ACE51E23AAE53D23A8E562
:10C160002323A6E52A23A4E59410002013B5D0F8D4
:10C170007432D0F8C42001909342044605D1D0F81F
:10C180007812D0F8CC20914216D0B4F8AA20A4F8A6
:10C19000872140F2E242B3FBF2F3A4F88931B4F80C
:10C1A0007832A4F88B31B4F87A320A49A4F88D3188
:10C1B00004F27D1005F0BEFDB4F87A22D4F87412B2
:10C1C00001A8FDF735F80023E3730323A37402B03D
:10C1D00010BD00BF8F200300074B93F900301844B7
:10C1E000142804DC10F17F0F03DB40B270471420E9
:10C1F00070476FF07E007047A510002007B57F23C1
:10C200000DF107008DF8073000F0A6FD03469DF9FB
:10C21000070053B1094B5B785B4240FA83F0142866
:10C2200006DC10F17F0F05DB40B203B05DF804FBC4
:10C230001420FAE76FF07E00F7E700BFA51000209A
:10C24000024B00221A705A70704700BFA5100020E0
:10C25000064BD3F8000138B1D3F8040120B1D3F86C
:10C260000801B0FA80F04009704700BF00F00040BC
:10C27000034B00221A705A7010229A70704700BF48
:10C28000A710002070B50646022014460D4600F0A7
:10C29000A3F8064B01221A70054B033CC3F8104566
:10C2A000C3F80865C3F8045570BD00BFA71000208F
:10C2B00000F0004008B5022000F08EF8084B012283
:10C2C0001A70084B0022C3F80021C3F80421C3F8F8
:10C2D000082103F580334FF40002C3F8042508BD9C
:10C2E000A710002000F000400E4A08B5137883B173
:10C2F0000D4B4FF40001C3F80815FFF7A9FF68B113
:10C3000001235370094BD3F80034DBB29370002340
:10C310001370BDE80840002000F05EB85070102394
:10C32000F4E700BFA710002000F0014000F000403B
:10C33000094B1A7862B1094BD3F8002152B1D3F8F6
:10C34000040140B1D3F80801B0FA80F04009704709
:10C350005878704702207047A710002000F0004076
:10C3600008B5074B1A783AB1FFF772FF30B1054BA9
:10C37000D3F80004C0B208BD9878FCE71020FAE7B3
:10C38000A710002000F0004008B50A4BD3F80025A4
:10C39000032A04BF01229A600022C3F80025C3F8D3
:10C3A000002500F0F9FE044B4FF40002C3F8082505
:10C3B00008BD00BF00F0004000F00140054B4FF405
:10C3C0000042C3F88020BFF34F8FBFF36F8FFFF79A
:10C3D000DBBF00BF00E100E010B50446FFF7D4FF6B
:10C3E000012C06D0022C0CD054B18C213D20FAF740
:10C3F00009FF0B4B0222C3F800250A4AC3F8142593
:10C4000010BD074B0322C3F80025064AC3F81425C4
:10C4100003F580334FF40002C3F80425F0E700BFB2
:10C4200000F00040AA100020044B1868062818BF2E
:10C43000B0F1FF3F0CBF012000207047F013002037
:10C44000044B1868062818BFB0F1FF3F0CBF01204D
:10C4500000207047F013002008B5FFF7E5FF38B162
:10C46000044B1868063810F1080F94BF0020012013
:10C4700008BD00BFF413002008B5FFF7E1FF38B195
:10C48000044B1868063810F1080F94BF00200120F3
:10C4900008BD00BFF413002008B5FFF7C5FF38B191
:10C4A000044B1868063810F1080F8CBF00200120DB
:10C4B00008BD00BFF4130020064B0022C3F8002182
:10C4C000C3F80C21C3F81021C3F80421C3F80821D4
:10C4D000704700BF0010004070B5134D6E7F0346DB
:10C4E000084626B940F6C1013E20FAF78BFE63B933
:10C4F000012EAC69297F05D100F03CFD20442B6959
:10C50000C01A70BD06F069FDF8E7012B09D1012EB4
:10C51000AC69297F02D100F01DFDEFE706F068FD50
:10C52000ECE70020EBE700BFB81100200B4B93F8BD
:10C530002B0088B193F82A307BB1094BD3F8002245
:10C5400042F00102C3F80022D3F8500500F0F600D3
:10C55000023818BF0120704701207047B811002031
:10C560000010004008B5094B01281871084B06D08F
:10C57000022808D040F645513E20FAF743FE032238
:10C58000C3F8102508BD0422FAE700BFB811002047
:10C590000010004008B570B9104B2831D96018461A
:10C5A0000F4900F023FF0130012816D940F2C26183
:10C5B0003E20FAF727FE01280CD1084B2931D9601B
:10C5C0001846074900F018FF0130012805D940F24C
:10C5D000CC61EDE74FF4DA61EAE708BD28000020FE
:10C5E000A092040008B50C4B5B78012B09D100F038
:10C5F00009FF013001280ED940F611113E20FAF74B
:10C6000001FE022B07D100F003FF0130012802D9FF
:10C6100040F61711F2E708BDB8110020094B0A4A8D
:10C620001B89B3F5166F3ABFA3F6381343F4807332
:10C63000A3F5166300F07F00C2F80835C2F8540570
:10C64000704700BFB81100200010004010B50C4624
:10C65000FFF788FF2046FFF7E1FF0F4A0023C2F8EB
:10C660001C31D2F8003243F48873C2F8003240F231
:10C670000313C2F8343540F25B63C2F83835FFF774
:10C68000EBFE40B9FFF708FF28B9D2F8683543F44C
:10C69000C023C2F8683510BD0010004073B50C46C9
:10C6A000154D0646FFF75EFF2046FFF7B7FF214610
:10C6B00095F9052001AB304600F034FE9DF80500E9
:10C6C00000F0ACFE20B140F2E3513E20FAF79AFDB3
:10C6D0009DF90400294600F035FC084B40F2031296
:10C6E000C3F83425284640F25B62C3F8382502B00F
:10C6F000BDE8704000F0FABDB81100200010004005
:10C700002DE9F04106460C46174601F083FB002850
:10C71000FBD02C4B2C4D4FF40022C3F808259EBBB8
:10C7200001236B7095F82A301BB9A9793846FFF7B9
:10C73000B5FF264B33F817304FF47A7203F5FA73CE
:10C74000B3FBF2F3224AE41A1E4BC3F8AC252B6963
:10C750001C4A204FE1184FF001081F4B85F82A8032
:10C76000C7F84015C2F8A8352B6A43F400232B62A2
:10C770004FF40023C2F80435FFF7D8FE0446B8B9D9
:10C7800000242046BDE8F081012E0CD102236B70FD
:10C7900095F82A301BB9A9793846FFF757FF094B9E
:10C7A0000E4A293CD1E740F634013E20FAF72AFD33
:10C7B000C7F84C80D7F84C358B42E1DA3046FFF7AA
:10C7C000E9FEDEE700F00140B811002018930400F4
:10C7D00000100040008000404081004004100040F4
:10C7E00008B540221048002103F048FD0F4B1B689C
:10C7F00023F004020A2A05D0102B03D0082B0ED1F7
:10C80000402200E024220A48FF2103F037FD4FF0C8
:10C8100080430022C3F8082EC3F8102E08BD0D2B4C
:10C82000EED03822EFE700BFB8110020F01300204F
:10C83000000E0040024B0344187E00F5166070475E
:10C84000A0920400024B98691B69C01A704700BF90
:10C85000B81100200A4B1A7FD3E90430C01A094BE3
:10C8600003EB82031B6CC01A074B53F822304FF4C2
:10C870007A7203F2F313B3FBF2F3C01A704700BFEE
:10C88000B8110020A09204000C930400FF2808B502
:10C8900004D940F2CB213E20FAF7B4FC114B012918
:10C8A000188504D0022919D04FF44F71F3E7002303
:10C8B0000D4A43F4801340F0007043F4847340F455
:10C8C0004030C2F81435C2F81805D2F8503503F0DC
:10C8D000F703032B05D140F25631DCE74FF08073AC
:10C8E000E6E708BDB81100200010004008B5FFF7CA
:10C8F000B3FD50B1054AD2F8743723F0807323F0AA
:10C90000010343F08073C2F8743708BD0010004083
:10C910001E4B2DE9F0410226C3F88060BFF34F8F14
:10C92000BFF36F8F01F070FA044601F0B1FB184DB0
:10C93000001B184C286100274FF00108C4F8FC7F49
:10C94000C4F8FC8F00F082FC40F20122C4F830856C
:10C95000C4F85026104AC4F80062107C00F076FD3E
:10C960000E4A0A4B0E49C2F804151022AF836F8598
:10C97000AF61C3F88061C4F804231E602B6C03B15F
:10C980009847BDE8F04100F025BD00BF00E100E0A0
:10C99000B8110020001000402800002000F00140E5
:10C9A0000000020C014B5871704700BFB811002005
:10C9B000034B020E0002C3F82425C3F81C05704780
:10C9C00000100040044B054A034490711B7E03F5A0
:10C9D00016631381704700BFA0920400B8110020B5
:10C9E000F8B52B4C94F82B3006460F4623B940F28D
:10C9F00006713E20FAF706FC264A012384F82A3005
:10CA0000D2F8003243F00103C2F8003201F002FA1A
:10CA10000028FBD02EBB0123A17963703846FFF7B5
:10CA20003DFE6378012B02D04FF4E961E1E71A4A39
:10CA3000D364A2F5E0421360174BD3F84C5530464F
:10CA40002946FFF7A7FD2369ED1AF6B9134B33F812
:10CA500017304FF47A7203F5FA73B3FBF2F35819F7
:10CA6000F8BD012EE8D10223A17963703846FFF7A3
:10CA7000EDFD6378022B02D040F25171B9E7064B0D
:10CA8000DE64A3F5E0435E60D6E705F12900E7E741
:10CA9000B8110020001000400080004018930400EE
:10CAA00008B5FFF72DFE58B9064BC3F84005A3F5AE
:10CAB000E04301221A610220BDE80840FCF7CCBD2A
:10CAC00008BD00BF0080004073B5234B2349D3F855
:10CAD0000443234D02224FF0FF30C3F80803C1F88E
